:100000000C9463000C948B000C948B000C948B006C
:100010000C948B000C948B000C948B000C948B0034
:100020000C948B000C948B000C948B000C94FC06AD
:100030000C948B000C948B000C948B000C948B0014
:100040000C943F050C948B000C94AF050C9489051F
:100050000C948B000C948B000C948B000C948B00F4
:100060000C94E1050C948B00000000002300260096
:10007000290000000000240027002A0000000000E2
:10008000250028002B0004040404040404040202D4
:100090000202020203030303030301020408102007
:1000A0004080010204081020010204081020000012
:1000B0000008000201000003040700000000000027
:1000C0000000B807AA0A11241FBECFEFD8E0DEBF98
:1000D000CDBF11E0A0E0B1E0EEECFAE102C0059086
:1000E0000D92AC39B107D9F723E0ACE9B1E001C01A
:1000F0001D92A030B207E1F710E0C2E6D0E004C0E4
:100100002197FE010E94590BC136D107C9F70E9401
:1001100074080C945A0D0C9400008F929F92AF9229
:10012000BF92FF920F931F93CF93DF93F090E10262
:100130002BE02F1508F44CC02091E30208E512E0F3
:10014000021B110927FD1395000F111F000F111F2E
:100150002091E202C8E8D0E0C21BD10927FDD39567
:10016000CC0FDD1FCC0FDD1F4E010D2E000CAA0899
:10017000BB089801012E000C440B550B28193909B6
:100180004A095B09DC010E94DD0A24EB30E040E013
:1001900050E00E94B30A820E931EA41EB51E8C1658
:1001A0009D062CF0E801801691060CF4E4012297DC
:1001B000CC0FDD1F2FB7F8948F2D90E0FC01EE0FD0
:1001C000FF1FE80FF91FEA54FD4FD283C1832FBFF1
:1001D000DF91CF911F910F91FF90BF90AF909F90B3
:1001E0008F900895833081F028F4813099F0823027
:1001F000A9F008958730A9F08830C9F08430B1F4AF
:10020000809180008F7D03C0809180008F778093E4
:100210008000089584B58F7784BD089584B58F7D5F
:10022000FBCF8091B0008F778093B00008958091CC
:10023000B0008F7DF9CF1F93CF93DF93282F30E04D
:10024000F901E255FF4F8491F901E656FF4FD49131
:10025000F901EA57FF4FC491CC23A9F0162F811161
:100260000E94F200EC2FF0E0EE0FFF1FE458FF4F6A
:10027000A591B4918FB7F894EC91111108C0D09565
:10028000DE23DC938FBFDF91CF911F910895DE2B8A
:10029000F8CFCF93DF9390E0FC01E656FF4F249117
:1002A0008A579F4FFC0184918823D1F090E0880FFA
:1002B000991FFC01EE58FF4FA591B491FC01E45841
:1002C000FF4FC591D49161110EC09FB7F8948C91E6
:1002D000E22FE0958E238C932881E223E8839FBF51
:1002E000DF91CF9108958FB7F894EC91E22BEC93C6
:1002F0008FBFF6CF3FB7F894809115029091160208
:10030000A0911702B091180226B5A89B05C02F3FF7
:1003100019F00196A11DB11D3FBFBA2FA92F982F2B
:100320008827BC01CD01620F711D811D911D42E026
:10033000660F771F881F991F4A95D1F708958F92EE
:100340009F92AF92BF92CF92DF92EF92FF924B01BA
:100350005C010E947A016B017C010E947A016C1998
:100360007D098E099F09683E734081059105A8F3B8
:1003700021E0821A9108A108B10888EEC80E83E036
:10038000D81EE11CF11C81149104A104B10429F7C9
:10039000FF90EF90DF90CF90BF90AF909F908F90A5
:1003A0000895AF92BF92CF92DF92EF92FF920F9398
:1003B0001F93CF93DF936C017B018B01040F151FFB
:1003C000EB015E01AE18BF08C017D10759F0699163
:1003D000D601ED91FC910190F081E02DC6010995C7
:1003E000892B79F7C501DF91CF911F910F91FF9074
:1003F000EF90DF90CF90BF90AF900895FC01538DA8
:10040000448D252F30E0842F90E0821B930B5417EE
:1004100010F0CF96089501970895FC01918D828D7B
:10042000981761F0A28DAE0FBF2FB11D5D968C9114
:10043000928D9F5F9F73928F90E008958FEF9FEF53
:100440000895FC01918D828D981731F0828DE80F0F
:10045000F11D858D90E008958FEF9FEF0895FC01C9
:10046000918D228D892F90E0805C9F4F821B910996
:100470008F739927089589E192E00E942F0221E06D
:10048000892B09F420E0822F089580E090E0892BE9
:1004900029F00E943B0281110C9400000895FC0198
:1004A000A48DA80FB92FB11DA35ABF4F2C91848DD5
:1004B00090E001968F739927848FA689B7892C9332
:1004C000A089B1898C91837080648C93938D848D85
:1004D000981306C00288F389E02D80818F7D808388
:1004E0000895EF92FF920F931F93CF93DF93EC0148
:1004F00081E0888F9B8D8C8D98131AC0E889F989CB
:10050000808185FF15C09FB7F894EE89FF896083CD
:10051000E889F98980818370806480839FBF81E04E
:1005200090E0DF91CF911F910F91FF90EF90089590
:10053000F62E0B8D10E00F5F1F4F0F731127E02E6B
:100540008C8D8E110CC00FB607FCFACFE889F989A3
:10055000808185FFF5CFCE010E944F02F1CFEB8D58
:10056000EC0FFD2FF11DE35AFF4FF0829FB7F89477
:100570000B8FEA89FB8980818062CFCFCF93DF9395
:10058000EC01888D8823B9F0AA89BB89E889F989AB
:100590008C9185FD03C0808186FD0DC00FB607FCE0
:1005A000F7CF8C9185FFF2CF808185FFEDCFCE0113
:1005B0000E944F02E9CFDF91CF91089508952091D5
:1005C000C401260F3327331F21323105ECF420916B
:1005D000E801FC0190E080E0243069F082E00895B9
:1005E000A091C4012191AC014C555E4FA40FB52FD1
:1005F000B11D2C930196861798F38091C401680F62
:100600006093C40180E0089581E0089508958FEF1C
:100610009FEF08958FEF9FEF089580919D0190E0E7
:100620009195819591090895CF93DF93CB01EA01CC
:10063000642F0E94DF02CE01DF91CF910895CF9306
:10064000DF931F92CDB7DEB7698361E0CE010196DB
:100650000E94DF0281E090E00F90DF91CF9108953A
:1006600090E080E00895CF93DF93EC0160E08E810D
:100670000E941B0161E08E810E941B0160E08E815F
:100680000E941B018BE891E00197F1F7DF91CF9178
:100690000895CF92DF92EF92FF920F931F93CF9323
:1006A000DF936C017C0187E0E80EF11CD0E0C0E034
:1006B000062F10E0B8010C2E02C0759567950A94BC
:1006C000E2F76170F70181917F010E941B01219681
:1006D000C430D10579F7C601DF91CF911F910F91F9
:1006E000FF90EF90DF90CF900C943303CF92DF9286
:1006F000EF92FF920F931F93CF93DF93EC01F62EAF
:10070000642F8C810E941B018D818F3F19F060E066
:100710000E941B010F2D10E08F8584FF25C06E0104
:1007200087E0C80ED11CF12CE12CB8010E2C02C0C0
:10073000759567950A94E2F76170F60181916F01F2
:100740000E941B01FFEFEF1AFF0A88E0E816F10490
:1007500061F7CE01DF91CF911F910F91FF90EF9044
:10076000DF90CF900C943303B80184E075956795C2
:100770008A95E1F7CE010E9449036F2DCE01DF91EA
:10078000CF911F910F91FF90EF90DF90CF900C943D
:10079000490340E061E084EE92E00E9476038BE33F
:1007A0009FE10197F1F70895CF93DF93823029F409
:1007B0009091F30298609093F3028093F702109265
:1007C000F80280E48093F90280E18093FA0280E5E8
:1007D0008093FB0261E08091E8020E9449018091D0
:1007E000E9028F3F19F061E00E94490161E08091C8
:1007F000EA020E944901C4EED2E09E01245E32402A
:100800008091F30284FD0BC084E090E021962817CC
:10081000390744F461E08E810E944901EECF88E0FF
:1008200090E0F4CF8BE39DE00197F1F760E08091D9
:10083000E8020E941B0160E08091EA020E941B0115
:100840008091E9028F3F19F060E00E941B016091E6
:10085000F30264FD3DC063E084EE92E00E94490330
:10086000CBE4D6E4CE010197F1F763E084EE92E0A9
:100870000E9449032197F1F763E084EE92E00E9421
:10088000490383E592E00197F1F762E084EE92E09C
:100890000E9449036091F302606240E084EE92E0BE
:1008A0000E94760384E08093F40240E06CE084EEE2
:1008B00092E00E9476030E94C90382E08093F502D1
:1008C00040E066E084EE92E0DF91CF910C947603F5
:1008D000606240E084EE92E00E9476038BE496E44E
:1008E0000197F1F76091F302606240E084EE92E0DC
:1008F0000E94760383E592E00197F1F76091F3029D
:10090000606240E084EE92E00E947603C3CF41E053
:100910000E94760381E090E00895FB0101900020A1
:10092000E9F73197AF01461B570BDC01ED91FC91C4
:100930000280F381E02D0994CF93DF93EC01809145
:10094000DB029091DC02009759F02091DD0230919A
:10095000DE022C173D0720F081E0DF91CF91089552
:10096000BE016F5F7F4F0E94840C009789F09093C7
:10097000DC028093DB02D093DE02C093DD02209183
:10098000DF023091E002232B39F7FC011082E4CF23
:1009900080E0E3CF1F93CF93DF9385ED8093BC007E
:1009A0008091A0019091A101A091A201B091A30119
:1009B0000796A11DB11D23E0B695A795979587953C
:1009C0002A95D1F72091BC0024FD03C01092E801C4
:1009D00052C04091A0015091A1016091A20170917B
:1009E000A301452B462B472B69F30097A105B105C1
:1009F00041F02AE22A95F1F700C00197A109B10957
:100A0000E1CF80919F01C1E0C0939E01882399F1BD
:100A1000D091B8001091BA008091BC008A7B80937D
:100A2000BC0060E082E10E941B0160E083E10E9463
:100A30001B011092E801C093EA011092E90161E004
:100A400082E10E941B0161E083E10E941B01809111
:100A5000B9008E7F8093B9008091B9008D7F80931B
:100A6000B90088E48093B80085E48093BC001093BB
:100A7000BA00D093B800DF91CF911F9108951F92D3
:100A80000F920FB60F9211242F933F938F939F9342
:100A9000AF93BF938091110290911202A091130223
:100AA000B09114023091100223E0230F2D3758F536
:100AB0000196A11DB11D2093100280931102909305
:100AC0001202A0931302B093140280911502909128
:100AD0001602A0911702B09118020196A11DB11D36
:100AE0008093150290931602A0931702B0931802F8
:100AF000BF91AF919F918F913F912F910F900FBE1A
:100B00000F901F90189526E8230F0296A11DB11D86
:100B1000D2CF1F920F920FB60F9211242F933F93B3
:100B20004F935F936F937F938F939F93AF93BF93F5
:100B3000EF93FF9389E192E00E944F02FF91EF91C2
:100B4000BF91AF919F918F917F916F915F914F91E5
:100B50003F912F910F900FBE0F901F9018951F92ED
:100B60000F920FB60F9211242F938F939F93EF93B1
:100B7000FF93E0912902F0912A028081E0912F02F7
:100B8000F091300282FD1BC09081809132028F5F14
:100B90008F7320913302821741F0E0913202F0E02E
:100BA000E75EFD4F958F80933202FF91EF919F9109
:100BB0008F912F910F900FBE0F901F9018958081ED
:100BC000F4CF1F920F920FB60F9211242F933F93E1
:100BD0004F935F936F937F938F939F93AF93BF9345
:100BE000EF93FF938091B900887F803609F44AC063
:100BF000F0F5883209F4A5C018F5803109F499C0E0
:100C0000B8F4882309F4F5C0883009F492C0FF9144
:100C1000EF91BF91AF919F918F917F916F915F9174
:100C20004F913F912F910F900FBE0F901F901895ED
:100C3000883109F486C0803251F78093E70114C0EF
:100C4000803409F49BC040F48033B9F38833F9F65B
:100C50008093E70185ECAEC0803509F483C0883508
:100C600009F494C0883499F60E94CA04D0CF883918
:100C700009F48AC038F5883729F050F4883611F025
:100C8000803729F683E08093E8011092E60155C091
:100C9000883809F479C0803919F0803809F0B7CF65
:100CA0008091E601803208F06FC0E091E60181E0BA
:100CB0008E0F8093E6018091BB00F0E0EA53FE4F77
:100CC00080833BC0803B39F0D0F4803A09F477C090
:100CD000883A09F09CCF84E08093E8011092C50126
:100CE0001092C401F0E0E0E009958091C401811107
:100CF0000FC081E08093C4011092A40109C0803C20
:100D000009F4A8CF883C09F4A5CF883B09F07FCF30
:100D1000E091C50181E08E0F8093C501F0E0EC55B4
:100D2000FE4F80818093BB009091C5018091C401EA
:100D300029C080910D028093BB0085EC8093BC009C
:100D400066CF90910C0280910B02981758F5E091B4
:100D50000C0281E08E0F80930C02F0E0E551FE4F13
:100D60008081E9CFE0910C0281E08E0F80930C022C
:100D70008091BB00F0E0E551FE4F808390910C0222
:100D800080910B029817C8F285E8D8CFE0910C0249
:100D900081E08E0F80930C028091BB00F0E0E55162
:100DA000FE4F80838091EA0181115ECF81E08093C4
:100DB000E90184EA8093BC001092E80128CF85EC19
:100DC0008093BC001092E8018091E601803230F4FB
:100DD000E091E601F0E0EA53FE4F10826091E601F7
:100DE00070E086EC91E0F0E0E0E009951092E60119
:100DF0000ECF1092E70138CF1F920F920FB60F92CD
:100E000011242F933F934F935F936F937F938F930F
:100E10009F93AF93BF93CF93DF93EF93FF93809113
:100E20009C01C091DA02D0E087FF24C010928500B7
:100E30001092840080919C018F5F80939C0180912F
:100E40009C01082E000C990B8C179D0724F48091AF
:100E50009C018C30C4F180918400909185000496AF
:100E600080349C4908F47AC0809184009091850078
:100E7000049676C080919C01082E000C990B8C176B
:100E80009D07C4F6E0919C018E2FEE0F990BFC019B
:100E9000EE0FFF1FE80FF91FEA54FD4F808186FF18
:100EA000C9CFE0919C018E2FEE0F990BFC01EE0F44
:100EB000FF1FE80FF91FEA54FD4F808160E08F7338
:100EC0000E941B01B7CF2091840030918500E091F2
:100ED0009C018E2FEE0F990BFC01EE0FFF1FE80F08
:100EE000F91FEA54FD4F81819281820F931F9093E5
:100EF000890080938800E0919C018E2FEE0F990B62
:100F0000FC01EE0FFF1FE80FF91FEA54FD4F80812F
:100F100086FF11C0E0919C018E2FEE0F990BFC0112
:100F2000EE0FFF1FE80FF91FEA54FD4F808161E0CB
:100F30008F730E941B01FF91EF91DF91CF91BF91C1
:100F4000AF919F918F917F916F915F914F913F9161
:100F50002F910F900FBE0F901F90189580E49CE981
:100F600090938900809388008FEF80939C01E3CF5A
:100F7000CF9310921C0210921B0288EE93E0A0E027
:100F8000B0E080931D0290931E02A0931F02B093C5
:100F900020028AE091E090931A028093190285EC76
:100FA00090E0909326028093250284EC90E0909349
:100FB00028028093270280EC90E090932A0280938D
:100FC000290281EC90E090932C0280932B0282EC1A
:100FD00090E090932E0280932D0286EC90E0909307
:100FE000300280932F02109232021092330210923C
:100FF0003402109235021092E7021092E6028CE160
:1010000091E09093E5028093E4028CE08093E80203
:10101000CFEFC093E9028BE08093EA0285E08093F2
:10102000EB0284E08093EC0283E08093ED0282E0A7
:101030008093EE021092EF021092F0021092F102F1
:101040001092F2021092F30281E00E94D403809188
:10105000DA028C30E0F591E0980F9093DA028093F9
:10106000E10290E0FC01EE0FFF1FE80FF91FEA54C8
:10107000FD4F88EB9BE0928381831092DC021092FB
:10108000DB021092DE021092DD021092E00210925A
:10109000DF0290E080E00E949C042091DB0230910E
:1010A000DC02811117C02115310519F0C9010E9418
:1010B000FB0B1092DC021092DB021092E002109205
:1010C000DF021092DE021092DD02CF910895C093EC
:1010D000E102D3CF1092E0021092DF026DE571E0E1
:1010E000C901CF910C94530DCF93DF9300D0CDB7AE
:1010F000DEB7789484B5826084BD84B5816084BD98
:1011000085B5826085BD85B5816085BD80916E00A5
:10111000816080936E0010928100809181008260D6
:101120008093810080918100816080938100809113
:1011300080008160809380008091B1008460809302
:10114000B1008091B00081608093B00080917A00FE
:10115000846080937A0080917A00826080937A0024
:1011600080917A00816080937A0080917A00806813
:1011700080937A001092C100E0912902F0912A0236
:1011800082E08083E0912502F09126021082E091B6
:101190002702F09128028FEC808310923102E091B7
:1011A0002D02F0912E0286E08083E0912B02F091D7
:1011B0002C02808180618083E0912B02F0912C02CF
:1011C000808188608083E0912B02F0912C028081E5
:1011D00080688083E0912B02F0912C0280818F7DCA
:1011E000808382E00E94D40364E271E084EE92E0A6
:1011F0000E948D0460ED77E080E090E00E949F0106
:101200000E94C90365E371E084EE92E00E948D04C0
:101210008091E1028C3008F051C061E086E00E94CC
:1012200049018091E102282F30E0F901EE0FFF1F04
:10123000E20FF31FEA54FD4F9081907C96609083FB
:101240001092E2021092E3022CE0622F0E944D0BFA
:10125000829FB001112430E020E0AB01420F531F08
:10126000FA01EE0FFF1FE40FF51FEA54FD4F9081C6
:1012700096FD16C02F5F3F4F2C30310571F781115D
:101280000FC01092800082E0809381001092850050
:1012900010928400B19A80916F00826080936F00F9
:1012A000E091E1028E2F90E0FC01EE0FFF1FE80FAE
:1012B000F91FEA54FD4F80818064808390E080E0D4
:1012C0000E948D0061E088E00E94490161E08AE0AF
:1012D0000E94490160E089E00E94490161E087E0E5
:1012E0000E94490160E087E00E941B0197EB692E94
:1012F00090E0792E23EAA22E20E0B22E3FE8832E42
:1013000030E0932E40E0C42E40E0D42E89E192E0FC
:101310000E942F02181619060CF0E0C089E192E035
:101320000E940D0200910E0210910F020F5F1F4FDD
:1013300010930F0200930E0289831A82E090DF025D
:10134000F090E0028FEFE81AF80AC7010E949C04AF
:10135000882399F02091DB023091DC028091DF023A
:101360009091E002BE016F5F7F4F820F931F0E943A
:10137000530DF092E002E092DF020C30110531F6DD
:101380004091DF025091E0026091DB027091DC023B
:1013900089E192E00E94D1018091DF029091E00208
:1013A000892B09F470C064E471E08091DB029091B4
:1013B000DC020E944A0D892B09F065C061E571E0ED
:1013C00089E192E00E948D046BE571E089E192E091
:1013D0000E948D040E94C9036EE571E084EE92E0E4
:1013E0000E948D0460ED77E080E090E00E949F0114
:1013F00061E088E00E941B0168EE73E080E090E00D
:101400000E949F0160E088E00E941B010E94C903C6
:101410006DE671E084EE92E00E948D0468EB7BE063
:1014200080E090E00E949F0184EB90E00E948D009C
:1014300068E873E180E090E00E949F01F3018491ED
:10144000F5011491F4010491002309F45FCF811197
:101450000E94F200E02FF0E0EE0FFF1FE859FF4F6F
:10146000A591B4918C91182309F450CF0E94C9031F
:101470006DE771E084EE92E00E948D0490E080E0E0
:101480000E948D0043CF0E94C9036DE871E084EE95
:1014900092E00E948D0461E08AE00E941B0168EEE8
:1014A00073E080E090E00E949F0160E08AE00E948B
:1014B000490161E087E00E941B0168EE73E080E073
:1014C00090E00E949F0160E087E00E941B0168EEAF
:1014D00073E080E090E00E949F01D0CF10920F0255
:1014E00010920E0290E080E00E949C042091DB02AA
:1014F0003091DC02811124C02115310519F0C90198
:101500000E94FB0B1092DC021092DB021092E002B0
:101510001092DF021092DE021092DD0268E873E1A1
:1015200080E090E00E949F01C114D10409F4EECE46
:101530000E943B02882309F4E9CE0E940000E6CE17
:101540001092E0021092DF026DE571E0C9010E9485
:10155000530DE4CF8091DB029091DC02009711F0F3
:101560000C94FB0B0895052E97FB1EF400940E942B
:10157000CA0A57FD07D00E941C0B07FC03D04EF48B
:101580000C94CA0A50954095309521953F4F4F4F86
:101590005F4F089590958095709561957F4F8F4F1F
:1015A0009F4F08950E943E0BA59F900DB49F900DF4
:1015B000A49F800D911D11240895B7FF0C94D20AA9
:1015C0000E94D20A821B930B08952F923F924F9252
:1015D0005F926F927F928F929F92AF92BF92CF92C3
:1015E000DF92EF92FF920F931F93CF93DF93CDB7CC
:1015F000DEB7CA1BDB0B0FB6F894DEBF0FBECDBF44
:1016000009942A88398848885F846E847D848C8414
:101610009B84AA84B984C884DF80EE80FD800C811D
:101620001B81AA81B981CE0FD11D0FB6F894DEBF00
:101630000FBECDBFED010895A1E21A2EAA1BBB1B60
:10164000FD010DC0AA1FBB1FEE1FFF1FA217B3078E
:10165000E407F50720F0A21BB30BE40BF50B661FA4
:10166000771F881F991F1A9469F760957095809568
:1016700090959B01AC01BD01CF010895A29FB001DF
:10168000B39FC001A39F700D811D1124911DB29FB6
:10169000700D811D1124911D0895991B79E004C0DE
:1016A000991F961708F0961B881F7A95C9F78095A1
:1016B0000895EE0FFF1F0590F491E02D09940F930C
:1016C0001F93CF93DF938230910510F482E090E076
:1016D000E091FE02F091FF0230E020E0B0E0A0E0F7
:1016E000309799F42115310509F44AC0281B390BAC
:1016F00024303105D8F58A819B816115710589F106
:10170000FB0193838283FE0111C0408151810281DC
:10171000138148175907E0F04817590799F41097B3
:1017200061F012960C93129713961C933296CF0188
:10173000DF91CF911F910F9108950093FE021093B6
:10174000FF02F4CF2115310551F04217530738F04D
:10175000A901DB019A01BD01DF01F801C1CFEF0151
:10176000F9CF9093FF028093FE02CDCFFE01E20FEE
:10177000F31F819391932250310939832883D7CF66
:101780002091FC023091FD02232B41F420910201B3
:10179000309103013093FD022093FC02209100015F
:1017A000309101012115310541F42DB73EB740912B
:1017B000040150910501241B350BE091FC02F091CE
:1017C000FD02E217F307A0F42E1B3F0B2817390781
:1017D00078F0AC014E5F5F4F2417350748F04E0F8D
:1017E0005F1F5093FD024093FC02819391939FCF22
:1017F000F0E0E0E09CCFCF93DF930097E9F0FC01AD
:10180000329713821282A091FE02B091FF02ED0185
:1018100030E020E01097A1F420813181820F931FE6
:101820002091FC023091FD022817390709F061C0B0
:10183000F093FD02E093FC02DF91CF910895EA015D
:10184000CE17DF07E8F54A815B819E0141155105FE
:10185000B1F7E901FB83EA8349915991C40FD51F80
:10186000EC17FD0761F4808191810296840F951F2A
:10187000E90199838883828193819B838A83F0E045
:10188000E0E012968D919C9113970097B9F52D91F8
:101890003C911197CD010296820F931F2091FC027B
:1018A0003091FD022817390739F6309751F510921B
:1018B000FF021092FE02B093FD02A093FC02BCCF87
:1018C000D383C28340815181840F951FC817D907E4
:1018D00061F44E5F5F4F88819981480F591F518392
:1018E00040838A819B81938382832115310509F08E
:1018F000B0CFF093FF02E093FE029ECFFD01DC012A
:10190000C0CF13821282D7CFB0E0A0E0EAE8FCE0BB
:101910000C94E70A8C01009751F4CB010E945F0BF5
:101920008C01C801CDB7DEB7E0E10C94030BFC01DC
:10193000E60FF71F9C0122503109E217F30708F464
:101940009DC0D901CD91DC911197C617D70798F0AA
:10195000C530D10530F3CE0104978617970708F3F9
:10196000C61BD70B2297C193D1936D937C93CF0164
:101970000E94FB0BD6CF5B01AC1ABD0A4C018C0E4A
:101980009D1EA091FE02B091FF02512C412CF12C22
:10199000E12C109731F58091FC029091FD028815A1
:1019A000990509F05CC04616570608F058C08091AA
:1019B000000190910101009741F48DB79EB74091CD
:1019C000040150910501841B950BE817F90708F0F5
:1019D00055C0F093FD02E093FC02F901718360832E
:1019E000A0CF8D919C91119712966C90129713969F
:1019F0007C901397A815B90559F56C0142E0C40E07
:101A0000D11CCA14DB0420F1AC014A195B09DA01CC
:101A10001296159780F06282738251834083D901B8
:101A20006D937C93E114F10471F0D7011396FC934C
:101A3000EE93129776CF22968C0F9D1FF90191831A
:101A40008083F301EFCFF093FF02E093FE0269CFB2
:101A50004816590608F42C017D01D3019ACFCB0119
:101A60000E945F0B7C01009749F0AE01B8010E9413
:101A7000410DC8010E94FB0B870153CF10E000E02D
:101A800050CFFB01DC0102C001900D92415050404B
:101A9000D8F70895FB01DC018D91019080190110A8
:101AA000D9F3990B0895FB01DC0101900D92002000
:101AB000E1F7089510E0C2E6D0E004C0FE010E9404
:0E1AC000590B2196C336D107C9F7F894FFCF12
:101ACE00000000038000000000007102D101FE0141
:101ADE00BE022F020D022102000000008704D10178
:101AEE003003DE02536D61727420456E7472792F6D
:101AFE004578697400456E746572205246494420DB
:101B0E007461670031323334353738393030626EB4
:101B1E000056616C696420544147000D0A00416310
:101B2E0063657373204772616E746564004F7065F0
:101B3E006E696E6720646F6F722E2E2E00436C6F6F
:101B4E0073696E6720646F6F722E2E2E0041636371
:0C1B5E006573732044656E6965640000C7
:00000001FF
